S014000041544D65676131365F5350492E737265634F
S11300000C942A000C9434000C9434000C943400A6
S11300100C9434000C9434000C9434000C9434008C
S11300200C9434000C9434000C9434000C9434007C
S11300300C9434000C9434000C9434000C9434006C
S11300400C9434000C9434000C9434000C9434005C
S11300500C94340011241FBECFE5D4E0DEBFCDBF25
S11300600E943A000C946B000C9400008FB9779BAB
S1130070FECF089587B3806B87BB87B38F7B87BB25
S11300808DB181658DB98EB18E7F8EB988B38F7E27
S113009088BB81E40E94360088B3806188BB2FEF5F
S11300A089E698E1215080409040E1F700C00000CB
S11300B088B38F7E88BB82E40E94360088B3806157
S11300C088BB2FEF89E698E1215080409040E1F70A
S10D00D000C00000DBCFF894FFCF5E
S9030000FC
